{
  "contracts/KeywordChain.sol": {
    "MessageChain": {
      "abi": [
        {
          "inputs": [],
          "stateMutability": "nonpayable",
          "type": "constructor"
        },
        {
          "inputs": [],
          "name": "EmptyText",
          "type": "error"
        },
        {
          "inputs": [],
          "name": "InvalidCharacters",
          "type": "error"
        },
        {
          "inputs": [],
          "name": "InvalidKeyword",
          "type": "error"
        },
        {
          "inputs": [],
          "name": "KeywordTooLong",
          "type": "error"
        },
        {
          "inputs": [],
          "name": "OutOfRange",
          "type": "error"
        },
        {
          "inputs": [],
          "name": "ReentrantCall",
          "type": "error"
        },
        {
          "inputs": [],
          "name": "TextTooLong",
          "type": "error"
        },
        {
          "anonymous": false,
          "inputs": [
            {
              "indexed": true,
              "internalType": "address",
              "name": "author",
              "type": "address"
            },
            {
              "indexed": false,
              "internalType": "string",
              "name": "text",
              "type": "string"
            },
            {
              "indexed": false,
              "internalType": "string",
              "name": "keyword",
              "type": "string"
            }
          ],
          "name": "MessageAdded",
          "type": "event"
        },
        {
          "anonymous": false,
          "inputs": [
            {
              "indexed": false,
              "internalType": "uint256",
              "name": "start",
              "type": "uint256"
            },
            {
              "indexed": false,
              "internalType": "uint256",
              "name": "count",
              "type": "uint256"
            }
          ],
          "name": "MessagesRetrieved",
          "type": "event"
        },
        {
          "anonymous": false,
          "inputs": [
            {
              "indexed": false,
              "internalType": "string",
              "name": "keyword",
              "type": "string"
            },
            {
              "indexed": false,
              "internalType": "uint256",
              "name": "count",
              "type": "uint256"
            }
          ],
          "name": "MessagesSearched",
          "type": "event"
        },
        {
          "anonymous": false,
          "inputs": [
            {
              "indexed": true,
              "internalType": "address",
              "name": "caller",
              "type": "address"
            }
          ],
          "name": "ReentrancyDetected",
          "type": "event"
        },
        {
          "inputs": [
            {
              "internalType": "string",
              "name": "text",
              "type": "string"
            }
          ],
          "name": "addMessage",
          "outputs": [],
          "stateMutability": "nonpayable",
          "type": "function"
        },
        {
          "inputs": [],
          "name": "getLastMessage",
          "outputs": [
            {
              "components": [
                {
                  "internalType": "address",
                  "name": "author",
                  "type": "address"
                },
                {
                  "internalType": "string",
                  "name": "keyword",
                  "type": "string"
                }
              ],
              "internalType": "struct MessageChain.Message",
              "name": "",
              "type": "tuple"
            }
          ],
          "stateMutability": "view",
          "type": "function"
        },
        {
          "inputs": [
            {
              "internalType": "uint256",
              "name": "start",
              "type": "uint256"
            },
            {
              "internalType": "uint256",
              "name": "count",
              "type": "uint256"
            }
          ],
          "name": "getMessages",
          "outputs": [
            {
              "components": [
                {
                  "internalType": "address",
                  "name": "author",
                  "type": "address"
                },
                {
                  "internalType": "string",
                  "name": "keyword",
                  "type": "string"
                }
              ],
              "internalType": "struct MessageChain.Message[]",
              "name": "",
              "type": "tuple[]"
            }
          ],
          "stateMutability": "view",
          "type": "function"
        },
        {
          "inputs": [],
          "name": "getMessagesCount",
          "outputs": [
            {
              "internalType": "uint256",
              "name": "",
              "type": "uint256"
            }
          ],
          "stateMutability": "view",
          "type": "function"
        },
        {
          "inputs": [
            {
              "internalType": "string",
              "name": "keyword",
              "type": "string"
            }
          ],
          "name": "isValidKeyword",
          "outputs": [
            {
              "internalType": "bool",
              "name": "",
              "type": "bool"
            }
          ],
          "stateMutability": "pure",
          "type": "function"
        },
        {
          "inputs": [
            {
              "internalType": "uint256",
              "name": "",
              "type": "uint256"
            }
          ],
          "name": "messages",
          "outputs": [
            {
              "internalType": "address",
              "name": "author",
              "type": "address"
            },
            {
              "internalType": "string",
              "name": "keyword",
              "type": "string"
            }
          ],
          "stateMutability": "view",
          "type": "function"
        },
        {
          "inputs": [
            {
              "internalType": "string",
              "name": "keyword",
              "type": "string"
            }
          ],
          "name": "searchMessagesByKeyword",
          "outputs": [
            {
              "components": [
                {
                  "internalType": "address",
                  "name": "author",
                  "type": "address"
                },
                {
                  "internalType": "string",
                  "name": "keyword",
                  "type": "string"
                }
              ],
              "internalType": "struct MessageChain.Message[]",
              "name": "",
              "type": "tuple[]"
            }
          ],
          "stateMutability": "view",
          "type": "function"
        }
      ],
      "evm": {
        "bytecode": {
          "linkReferences": {},
          "object": "60c0604052610100608052602060a05234801561001b57600080fd5b5060408051808201825260008082528251808401909352600e83526d1a5b9a5d1a585b12d95e5ddbdc9960921b6020808501919091528201928352805460018101825590805281517f290decd9548b62a8d60345a988386fc84ba6bc95484008f6362f93160ef3e563600290920291820180546001600160a01b0319166001600160a01b0390921691909117815592519192917f290decd9548b62a8d60345a988386fc84ba6bc95484008f6362f93160ef3e564909101906100dd9082610184565b505050610242565b634e487b7160e01b600052604160045260246000fd5b600181811c9082168061010f57607f821691505b60208210810361012f57634e487b7160e01b600052602260045260246000fd5b50919050565b601f82111561017f57806000526020600020601f840160051c8101602085101561015c5750805b601f840160051c820191505b8181101561017c5760008155600101610168565b50505b505050565b81516001600160401b0381111561019d5761019d6100e5565b6101b1816101ab84546100fb565b84610135565b6020601f8211600181146101e557600083156101cd5750848201515b600019600385901b1c1916600184901b17845561017c565b600084815260208120601f198516915b8281101561021557878501518255602094850194600190920191016101f5565b50848210156102335786840151600019600387901b60f8161c191681555b50505050600190811b01905550565b60805160a05161119a61026760003960006108c2015260006107c1015261119a6000f3fe608060405234801561001057600080fd5b506004361061007d5760003560e01c8063526bf76e1161005b578063526bf76e146100dd5780635b1dd374146100f25780636a226a4914610105578063931588c01461011a57600080fd5b80630d80fefd146100825780633d0c46d0146100ac5780634be8362d146100bd575b600080fd5b610095610090366004610c37565b61013d565b6040516100a3929190610c96565b60405180910390f35b6000546040519081526020016100a3565b6100d06100cb366004610cc2565b6101ff565b6040516100a39190610d0b565b6100e56103c9565b6040516100a39190610d70565b6100d0610100366004610d8a565b6104e7565b610118610113366004610d8a565b61079b565b005b61012d610128366004610e14565b610a1b565b60405190151581526020016100a3565b6000818154811061014d57600080fd5b6000918252602090912060029091020180546001820180546001600160a01b0390921693509061017c90610ecd565b80601f01602080910402602001604051908101604052809291908181526020018280546101a890610ecd565b80156101f55780601f106101ca576101008083540402835291602001916101f5565b820191906000526020600020905b8154815290600101906020018083116101d857829003601f168201915b5050505050905082565b600054606090831061022457604051637db3aba760e01b815260040160405180910390fd5b600080546102328486610f1d565b11610246576102418385610f1d565b61024a565b6000545b905060006102588583610f30565b67ffffffffffffffff81111561027057610270610dfe565b6040519080825280602002602001820160405280156102b657816020015b60408051808201909152600081526060602082015281526020019060019003908161028e5790505b509050845b828110156103be57600081815481106102d6576102d6610f43565b60009182526020918290206040805180820190915260029092020180546001600160a01b03168252600181018054929391929184019161031590610ecd565b80601f016020809104026020016040519081016040528092919081815260200182805461034190610ecd565b801561038e5780601f106103635761010080835404028352916020019161038e565b820191906000526020600020905b81548152906001019060200180831161037157829003601f168201915b50505050508152505082878303815181106103ab576103ab610f43565b60209081029190910101526001016102bb565b509150505b92915050565b60408051808201909152600081526060602082015260008054900361040157604051637db3aba760e01b815260040160405180910390fd5b6000805461041190600190610f30565b8154811061042157610421610f43565b60009182526020918290206040805180820190915260029092020180546001600160a01b03168252600181018054929391929184019161046090610ecd565b80601f016020809104026020016040519081016040528092919081815260200182805461048c90610ecd565b80156104d95780601f106104ae576101008083540402835291602001916104d9565b820191906000526020600020905b8154815290600101906020018083116104bc57829003601f168201915b505050505081525050905090565b606061052883838080601f016020809104026020016040519081016040528093929190818152602001838380828437600092019190915250610a1b92505050565b61054557604051632ec110bf60e11b815260040160405180910390fd5b6000805b6000548110156105bf578484604051610563929190610f59565b60405180910390206000828154811061057e5761057e610f43565b906000526020600020906002020160010160405161059c9190610f69565b6040518091039020036105b757816105b381610fde565b9250505b600101610549565b5060008167ffffffffffffffff8111156105db576105db610dfe565b60405190808252806020026020018201604052801561062157816020015b6040805180820190915260008152606060208201528152602001906001900390816105f95790505b5090506000805b600054811015610790578686604051610642929190610f59565b60405180910390206000828154811061065d5761065d610f43565b906000526020600020906002020160010160405161067b9190610f69565b604051809103902003610788576000818154811061069b5761069b610f43565b60009182526020918290206040805180820190915260029092020180546001600160a01b0316825260018101805492939192918401916106da90610ecd565b80601f016020809104026020016040519081016040528092919081815260200182805461070690610ecd565b80156107535780601f1061072857610100808354040283529160200191610753565b820191906000526020600020905b81548152906001019060200180831161073657829003601f168201915b50505050508152505083838151811061076e5761076e610f43565b6020026020010181905250818061078490610fde565b9250505b600101610628565b509095945050505050565b818160008190036107bf5760405163af943d0360e01b815260040160405180910390fd5b7f00000000000000000000000000000000000000000000000000000000000000008111156108005760405163d88051b560e01b815260040160405180910390fd5b60015460ff161561084f5760405133907fd434f45df1d7a0ff9c04a75749dae78b723a05b56d00bbf36cbaa20ce5aab3f990600090a26040516306fda65d60e31b815260040160405180910390fd5b6001805460ff191681179055604080516020601f860181900481028201810190925284815260009161089c91908790879081908401838280828437600092019190915250610b1292505050565b905080516000036108c057604051633cf3005b60e11b815260040160405180910390fd5b7f0000000000000000000000000000000000000000000000000000000000000000815111156109025760405163606ed36760e11b815260040160405180910390fd5b61090b81610a1b565b61092857604051632ec110bf60e11b815260040160405180910390fd5b60408051808201909152338152602081018281526000805460018101825590805282517f290decd9548b62a8d60345a988386fc84ba6bc95484008f6362f93160ef3e563600290920291820180546001600160a01b0319166001600160a01b0390921691909117815591517f290decd9548b62a8d60345a988386fc84ba6bc95484008f6362f93160ef3e564909101906109c29082611046565b505050336001600160a01b03167fb29a5991ca7a9e8bb3821a478a704abf11015074619f68cc043ac406992a3df4868684604051610a0293929190611105565b60405180910390a250506001805460ff19169055505050565b805160009082908203610a315750600092915050565b60005b8151811015610b08576000828281518110610a5157610a51610f43565b01602001516001600160f81b0319169050600360fc1b8110801590610a845750603960f81b6001600160f81b0319821611155b158015610aba5750604160f81b6001600160f81b0319821610801590610ab85750602d60f91b6001600160f81b0319821611155b155b8015610aef5750606160f81b6001600160f81b0319821610801590610aed5750603d60f91b6001600160f81b0319821611155b155b15610aff57506000949350505050565b50600101610a34565b5060019392505050565b80516060908290805b600081118015610b5a575082610b32600183610f30565b81518110610b4257610b42610f43565b6020910101516001600160f81b031916600160fd1b14155b15610b715780610b698161114d565b915050610b1b565b6000610b7d8284610f30565b67ffffffffffffffff811115610b9557610b95610dfe565b6040519080825280601f01601f191660200182016040528015610bbf576020820181803683370190505b50905060005b610bcf8385610f30565b811015610c2d5784610be18285610f1d565b81518110610bf157610bf1610f43565b602001015160f81c60f81b828281518110610c0e57610c0e610f43565b60200101906001600160f81b031916908160001a905350600101610bc5565b5095945050505050565b600060208284031215610c4957600080fd5b5035919050565b6000815180845260005b81811015610c7657602081850181015186830182015201610c5a565b506000602082860101526020601f19601f83011685010191505092915050565b6001600160a01b0383168152604060208201819052600090610cba90830184610c50565b949350505050565b60008060408385031215610cd557600080fd5b50508035926020909101359150565b60018060a01b0381511682526000602082015160406020850152610cba6040850182610c50565b6000602082016020835280845180835260408501915060408160051b86010192506020860160005b82811015610d6457603f19878603018452610d4f858351610ce4565b94506020938401939190910190600101610d33565b50929695505050505050565b602081526000610d836020830184610ce4565b9392505050565b60008060208385031215610d9d57600080fd5b823567ffffffffffffffff811115610db457600080fd5b8301601f81018513610dc557600080fd5b803567ffffffffffffffff811115610ddc57600080fd5b856020828401011115610dee57600080fd5b6020919091019590945092505050565b634e487b7160e01b600052604160045260246000fd5b600060208284031215610e2657600080fd5b813567ffffffffffffffff811115610e3d57600080fd5b8201601f81018413610e4e57600080fd5b803567ffffffffffffffff811115610e6857610e68610dfe565b604051601f8201601f19908116603f0116810167ffffffffffffffff81118282101715610e9757610e97610dfe565b604052818152828201602001861015610eaf57600080fd5b81602084016020830137600091810160200191909152949350505050565b600181811c90821680610ee157607f821691505b602082108103610f0157634e487b7160e01b600052602260045260246000fd5b50919050565b634e487b7160e01b600052601160045260246000fd5b808201808211156103c3576103c3610f07565b818103818111156103c3576103c3610f07565b634e487b7160e01b600052603260045260246000fd5b8183823760009101908152919050565b6000808354610f7781610ecd565b600182168015610f8e5760018114610fa357610fd3565b60ff1983168652811515820286019350610fd3565b86600052602060002060005b83811015610fcb57815488820152600190910190602001610faf565b505081860193505b509195945050505050565b600060018201610ff057610ff0610f07565b5060010190565b601f82111561104157806000526020600020601f840160051c8101602085101561101e5750805b601f840160051c820191505b8181101561103e576000815560010161102a565b50505b505050565b815167ffffffffffffffff81111561106057611060610dfe565b6110748161106e8454610ecd565b84610ff7565b6020601f8211600181146110a857600083156110905750848201515b600019600385901b1c1916600184901b17845561103e565b600084815260208120601f198516915b828110156110d857878501518255602094850194600190920191016110b8565b50848210156110f65786840151600019600387901b60f8161c191681555b50505050600190811b01905550565b60408152826040820152828460608301376000606084830101526000601f19601f850116820160608382030160208401526111436060820185610c50565b9695505050505050565b60008161115c5761115c610f07565b50600019019056fea26469706673582212209682417d384b973204033a123261ff922e7b5af2e2f3c3c44760750b7cebcf8164736f6c634300081c0033",
          "opcodes": "PUSH1 0xC0 PUSH1 0x40 MSTORE PUSH2 0x100 PUSH1 0x80 MSTORE PUSH1 0x20 PUSH1 0xA0 MSTORE CALLVALUE DUP1 ISZERO PUSH2 0x1B JUMPI PUSH1 0x0 DUP1 REVERT JUMPDEST POP PUSH1 0x40 DUP1 MLOAD DUP1 DUP3 ADD DUP3 MSTORE PUSH1 0x0 DUP1 DUP3 MSTORE DUP3 MLOAD DUP1 DUP5 ADD SWAP1 SWAP4 MSTORE PUSH1 0xE DUP4 MSTORE PUSH14 0x1A5B9A5D1A585B12D95E5DDBDC99 PUSH1 0x92 SHL PUSH1 0x20 DUP1 DUP6 ADD SWAP2 SWAP1 SWAP2 MSTORE DUP3 ADD SWAP3 DUP4 MSTORE DUP1 SLOAD PUSH1 0x1 DUP2 ADD DUP3 SSTORE SWAP1 DUP1 MSTORE DUP2 MLOAD PUSH32 0x290DECD9548B62A8D60345A988386FC84BA6BC95484008F6362F93160EF3E563 PUSH1 0x2 SWAP1 SWAP3 MUL SWAP2 DUP3 ADD DUP1 SLOAD PUSH1 0x1 PUSH1 0x1 PUSH1 0xA0 SHL SUB NOT AND PUSH1 0x1 PUSH1 0x1 PUSH1 0xA0 SHL SUB SWAP1 SWAP3 AND SWAP2 SWAP1 SWAP2 OR DUP2 SSTORE SWAP3 MLOAD SWAP2 SWAP3 SWAP2 PUSH32 0x290DECD9548B62A8D60345A988386FC84BA6BC95484008F6362F93160EF3E564 SWAP1 SWAP2 ADD SWAP1 PUSH2 0xDD SWAP1 DUP3 PUSH2 0x184 JUMP JUMPDEST POP POP POP PUSH2 0x242 JUMP JUMPDEST PUSH4 0x4E487B71 PUSH1 0xE0 SHL PUSH1 0x0 MSTORE PUSH1 0x41 PUSH1 0x4 MSTORE PUSH1 0x24 PUSH1 0x0 REVERT JUMPDEST PUSH1 0x1 DUP2 DUP2 SHR SWAP1 DUP3 AND DUP1 PUSH2 0x10F JUMPI PUSH1 0x7F DUP3 AND SWAP2 POP JUMPDEST PUSH1 0x20 DUP3 LT DUP2 SUB PUSH2 0x12F JUMPI PUSH4 0x4E487B71 PUSH1 0xE0 SHL PUSH1 0x0 MSTORE PUSH1 0x22 PUSH1 0x4 MSTORE PUSH1 0x24 PUSH1 0x0 REVERT JUMPDEST POP SWAP2 SWAP1 POP JUMP JUMPDEST PUSH1 0x1F DUP3 GT ISZERO PUSH2 0x17F JUMPI DUP1 PUSH1 0x0 MSTORE PUSH1 0x20 PUSH1 0x0 KECCAK256 PUSH1 0x1F DUP5 ADD PUSH1 0x5 SHR DUP2 ADD PUSH1 0x20 DUP6 LT ISZERO PUSH2 0x15C JUMPI POP DUP1 JUMPDEST PUSH1 0x1F DUP5 ADD PUSH1 0x5 SHR DUP3 ADD SWAP2 POP JUMPDEST DUP2 DUP2 LT ISZERO PUSH2 0x17C JUMPI PUSH1 0x0 DUP2 SSTORE PUSH1 0x1 ADD PUSH2 0x168 JUMP JUMPDEST POP POP JUMPDEST POP POP POP JUMP JUMPDEST DUP2 MLOAD PUSH1 0x1 PUSH1 0x1 PUSH1 0x40 SHL SUB DUP2 GT ISZERO PUSH2 0x19D JUMPI PUSH2 0x19D PUSH2 0xE5 JUMP JUMPDEST PUSH2 0x1B1 DUP2 PUSH2 0x1AB DUP5 SLOAD PUSH2 0xFB JUMP JUMPDEST DUP5 PUSH2 0x135 JUMP JUMPDEST PUSH1 0x20 PUSH1 0x1F DUP3 GT PUSH1 0x1 DUP2 EQ PUSH2 0x1E5 JUMPI PUSH1 0x0 DUP4 ISZERO PUSH2 0x1CD JUMPI POP DUP5 DUP3 ADD MLOAD JUMPDEST PUSH1 0x0 NOT PUSH1 0x3 DUP6 SWAP1 SHL SHR NOT AND PUSH1 0x1 DUP5 SWAP1 SHL OR DUP5 SSTORE PUSH2 0x17C JUMP JUMPDEST PUSH1 0x0 DUP5 DUP2 MSTORE PUSH1 0x20 DUP2 KECCAK256 PUSH1 0x1F NOT DUP6 AND SWAP2 JUMPDEST DUP3 DUP2 LT ISZERO PUSH2 0x215 JUMPI DUP8 DUP6 ADD MLOAD DUP3 SSTORE PUSH1 0x20 SWAP5 DUP6 ADD SWAP5 PUSH1 0x1 SWAP1 SWAP3 ADD SWAP2 ADD PUSH2 0x1F5 JUMP JUMPDEST POP DUP5 DUP3 LT ISZERO PUSH2 0x233 JUMPI DUP7 DUP5 ADD MLOAD PUSH1 0x0 NOT PUSH1 0x3 DUP8 SWAP1 SHL PUSH1 0xF8 AND SHR NOT AND DUP2 SSTORE JUMPDEST POP POP POP POP PUSH1 0x1 SWAP1 DUP2 SHL ADD SWAP1 SSTORE POP JUMP JUMPDEST PUSH1 0x80 MLOAD PUSH1 0xA0 MLOAD PUSH2 0x119A PUSH2 0x267 PUSH1 0x0 CODECOPY PUSH1 0x0 PUSH2 0x8C2 ADD MSTORE PUSH1 0x0 PUSH2 0x7C1 ADD MSTORE PUSH2 0x119A PUSH1 0x0 RETURN INVALID PUSH1 0x80 PUSH1 0x40 MSTORE CALLVALUE DUP1 ISZERO PUSH2 0x10 JUMPI PUSH1 0x0 DUP1 REVERT JUMPDEST POP PUSH1 0x4 CALLDATASIZE LT PUSH2 0x7D JUMPI PUSH1 0x0 CALLDATALOAD PUSH1 0xE0 SHR DUP1 PUSH4 0x526BF76E GT PUSH2 0x5B JUMPI DUP1 PUSH4 0x526BF76E EQ PUSH2 0xDD JUMPI DUP1 PUSH4 0x5B1DD374 EQ PUSH2 0xF2 JUMPI DUP1 PUSH4 0x6A226A49 EQ PUSH2 0x105 JUMPI DUP1 PUSH4 0x931588C0 EQ PUSH2 0x11A JUMPI PUSH1 0x0 DUP1 REVERT JUMPDEST DUP1 PUSH4 0xD80FEFD EQ PUSH2 0x82 JUMPI DUP1 PUSH4 0x3D0C46D0 EQ PUSH2 0xAC JUMPI DUP1 PUSH4 0x4BE8362D EQ PUSH2 0xBD JUMPI JUMPDEST PUSH1 0x0 DUP1 REVERT JUMPDEST PUSH2 0x95 PUSH2 0x90 CALLDATASIZE PUSH1 0x4 PUSH2 0xC37 JUMP JUMPDEST PUSH2 0x13D JUMP JUMPDEST PUSH1 0x40 MLOAD PUSH2 0xA3 SWAP3 SWAP2 SWAP1 PUSH2 0xC96 JUMP JUMPDEST PUSH1 0x40 MLOAD DUP1 SWAP2 SUB SWAP1 RETURN JUMPDEST PUSH1 0x0 SLOAD PUSH1 0x40 MLOAD SWAP1 DUP2 MSTORE PUSH1 0x20 ADD PUSH2 0xA3 JUMP JUMPDEST PUSH2 0xD0 PUSH2 0xCB CALLDATASIZE PUSH1 0x4 PUSH2 0xCC2 JUMP JUMPDEST PUSH2 0x1FF JUMP JUMPDEST PUSH1 0x40 MLOAD PUSH2 0xA3 SWAP2 SWAP1 PUSH2 0xD0B JUMP JUMPDEST PUSH2 0xE5 PUSH2 0x3C9 JUMP JUMPDEST PUSH1 0x40 MLOAD PUSH2 0xA3 SWAP2 SWAP1 PUSH2 0xD70 JUMP JUMPDEST PUSH2 0xD0 PUSH2 0x100 CALLDATASIZE PUSH1 0x4 PUSH2 0xD8A JUMP JUMPDEST PUSH2 0x4E7 JUMP JUMPDEST PUSH2 0x118 PUSH2 0x113 CALLDATASIZE PUSH1 0x4 PUSH2 0xD8A JUMP JUMPDEST PUSH2 0x79B JUMP JUMPDEST STOP JUMPDEST PUSH2 0x12D PUSH2 0x128 CALLDATASIZE PUSH1 0x4 PUSH2 0xE14 JUMP JUMPDEST PUSH2 0xA1B JUMP JUMPDEST PUSH1 0x40 MLOAD SWAP1 ISZERO ISZERO DUP2 MSTORE PUSH1 0x20 ADD PUSH2 0xA3 JUMP JUMPDEST PUSH1 0x0 DUP2 DUP2 SLOAD DUP2 LT PUSH2 0x14D JUMPI PUSH1 0x0 DUP1 REVERT JUMPDEST PUSH1 0x0 SWAP2 DUP3 MSTORE PUSH1 0x20 SWAP1 SWAP2 KECCAK256 PUSH1 0x2 SWAP1 SWAP2 MUL ADD DUP1 SLOAD PUSH1 0x1 DUP3 ADD DUP1 SLOAD PUSH1 0x1 PUSH1 0x1 PUSH1 0xA0 SHL SUB SWAP1 SWAP3 AND SWAP4 POP SWAP1 PUSH2 0x17C SWAP1 PUSH2 0xECD JUMP JUMPDEST DUP1 PUSH1 0x1F ADD PUSH1 0x20 DUP1 SWAP2 DIV MUL PUSH1 0x20 ADD PUSH1 0x40 MLOAD SWAP1 DUP2 ADD PUSH1 0x40 MSTORE DUP1 SWAP3 SWAP2 SWAP1 DUP2 DUP2 MSTORE PUSH1 0x20 ADD DUP3 DUP1 SLOAD PUSH2 0x1A8 SWAP1 PUSH2 0xECD JUMP JUMPDEST DUP1 ISZERO PUSH2 0x1F5 JUMPI DUP1 PUSH1 0x1F LT PUSH2 0x1CA JUMPI PUSH2 0x100 DUP1 DUP4 SLOAD DIV MUL DUP4 MSTORE SWAP2 PUSH1 0x20 ADD SWAP2 PUSH2 0x1F5 JUMP JUMPDEST DUP3 ADD SWAP2 SWAP1 PUSH1 0x0 MSTORE PUSH1 0x20 PUSH1 0x0 KECCAK256 SWAP1 JUMPDEST DUP2 SLOAD DUP2 MSTORE SWAP1 PUSH1 0x1 ADD SWAP1 PUSH1 0x20 ADD DUP1 DUP4 GT PUSH2 0x1D8 JUMPI DUP3 SWAP1 SUB PUSH1 0x1F AND DUP3 ADD SWAP2 JUMPDEST POP POP POP POP POP SWAP1 POP DUP3 JUMP JUMPDEST PUSH1 0x0 SLOAD PUSH1 0x60 SWAP1 DUP4 LT PUSH2 0x224 JUMPI PUSH1 0x40 MLOAD PUSH4 0x7DB3ABA7 PUSH1 0xE0 SHL DUP2 MSTORE PUSH1 0x4 ADD PUSH1 0x40 MLOAD DUP1 SWAP2 SUB SWAP1 REVERT JUMPDEST PUSH1 0x0 DUP1 SLOAD PUSH2 0x232 DUP5 DUP7 PUSH2 0xF1D JUMP JUMPDEST GT PUSH2 0x246 JUMPI PUSH2 0x241 DUP4 DUP6 PUSH2 0xF1D JUMP JUMPDEST PUSH2 0x24A JUMP JUMPDEST PUSH1 0x0 SLOAD JUMPDEST SWAP1 POP PUSH1 0x0 PUSH2 0x258 DUP6 DUP4 PUSH2 0xF30 JUMP JUMPDEST PUSH8 0xFFFFFFFFFFFFFFFF DUP2 GT ISZERO PUSH2 0x270 JUMPI PUSH2 0x270 PUSH2 0xDFE JUMP JUMPDEST PUSH1 0x40 MLOAD SWAP1 DUP1 DUP3 MSTORE DUP1 PUSH1 0x20 MUL PUSH1 0x20 ADD DUP3 ADD PUSH1 0x40 MSTORE DUP1 ISZERO PUSH2 0x2B6 JUMPI DUP2 PUSH1 0x20 ADD JUMPDEST PUSH1 0x40 DUP1 MLOAD DUP1 DUP3 ADD SWAP1 SWAP2 MSTORE PUSH1 0x0 DUP2 MSTORE PUSH1 0x60 PUSH1 0x20 DUP3 ADD MSTORE DUP2 MSTORE PUSH1 0x20 ADD SWAP1 PUSH1 0x1 SWAP1 SUB SWAP1 DUP2 PUSH2 0x28E JUMPI SWAP1 POP JUMPDEST POP SWAP1 POP DUP5 JUMPDEST DUP3 DUP2 LT ISZERO PUSH2 0x3BE JUMPI PUSH1 0x0 DUP2 DUP2 SLOAD DUP2 LT PUSH2 0x2D6 JUMPI PUSH2 0x2D6 PUSH2 0xF43 JUMP JUMPDEST PUSH1 0x0 SWAP2 DUP3 MSTORE PUSH1 0x20 SWAP2 DUP3 SWAP1 KECCAK256 PUSH1 0x40 DUP1 MLOAD DUP1 DUP3 ADD SWAP1 SWAP2 MSTORE PUSH1 0x2 SWAP1 SWAP3 MUL ADD DUP1 SLOAD PUSH1 0x1 PUSH1 0x1 PUSH1 0xA0 SHL SUB AND DUP3 MSTORE PUSH1 0x1 DUP2 ADD DUP1 SLOAD SWAP3 SWAP4 SWAP2 SWAP3 SWAP2 DUP5 ADD SWAP2 PUSH2 0x315 SWAP1 PUSH2 0xECD JUMP JUMPDEST DUP1 PUSH1 0x1F ADD PUSH1 0x20 DUP1 SWAP2 DIV MUL PUSH1 0x20 ADD PUSH1 0x40 MLOAD SWAP1 DUP2 ADD PUSH1 0x40 MSTORE DUP1 SWAP3 SWAP2 SWAP1 DUP2 DUP2 MSTORE PUSH1 0x20 ADD DUP3 DUP1 SLOAD PUSH2 0x341 SWAP1 PUSH2 0xECD JUMP JUMPDEST DUP1 ISZERO PUSH2 0x38E JUMPI DUP1 PUSH1 0x1F LT PUSH2 0x363 JUMPI PUSH2 0x100 DUP1 DUP4 SLOAD DIV MUL DUP4 MSTORE SWAP2 PUSH1 0x20 ADD SWAP2 PUSH2 0x38E JUMP JUMPDEST DUP3 ADD SWAP2 SWAP1 PUSH1 0x0 MSTORE PUSH1 0x20 PUSH1 0x0 KECCAK256 SWAP1 JUMPDEST DUP2 SLOAD DUP2 MSTORE SWAP1 PUSH1 0x1 ADD SWAP1 PUSH1 0x20 ADD DUP1 DUP4 GT PUSH2 0x371 JUMPI DUP3 SWAP1 SUB PUSH1 0x1F AND DUP3 ADD SWAP2 JUMPDEST POP POP POP POP POP DUP2 MSTORE POP POP DUP3 DUP8 DUP4 SUB DUP2 MLOAD DUP2 LT PUSH2 0x3AB JUMPI PUSH2 0x3AB PUSH2 0xF43 JUMP JUMPDEST PUSH1 0x20 SWAP1 DUP2 MUL SWAP2 SWAP1 SWAP2 ADD ADD MSTORE PUSH1 0x1 ADD PUSH2 0x2BB JUMP JUMPDEST POP SWAP2 POP POP JUMPDEST SWAP3 SWAP2 POP POP JUMP JUMPDEST PUSH1 0x40 DUP1 MLOAD DUP1 DUP3 ADD SWAP1 SWAP2 MSTORE PUSH1 0x0 DUP2 MSTORE PUSH1 0x60 PUSH1 0x20 DUP3 ADD MSTORE PUSH1 0x0 DUP1 SLOAD SWAP1 SUB PUSH2 0x401 JUMPI PUSH1 0x40 MLOAD PUSH4 0x7DB3ABA7 PUSH1 0xE0 SHL DUP2 MSTORE PUSH1 0x4 ADD PUSH1 0x40 MLOAD DUP1 SWAP2 SUB SWAP1 REVERT JUMPDEST PUSH1 0x0 DUP1 SLOAD PUSH2 0x411 SWAP1 PUSH1 0x1 SWAP1 PUSH2 0xF30 JUMP JUMPDEST DUP2 SLOAD DUP2 LT PUSH2 0x421 JUMPI PUSH2 0x421 PUSH2 0xF43 JUMP JUMPDEST PUSH1 0x0 SWAP2 DUP3 MSTORE PUSH1 0x20 SWAP2 DUP3 SWAP1 KECCAK256 PUSH1 0x40 DUP1 MLOAD DUP1 DUP3 ADD SWAP1 SWAP2 MSTORE PUSH1 0x2 SWAP1 SWAP3 MUL ADD DUP1 SLOAD PUSH1 0x1 PUSH1 0x1 PUSH1 0xA0 SHL SUB AND DUP3 MSTORE PUSH1 0x1 DUP2 ADD DUP1 SLOAD SWAP3 SWAP4 SWAP2 SWAP3 SWAP2 DUP5 ADD SWAP2 PUSH2 0x460 SWAP1 PUSH2 0xECD JUMP JUMPDEST DUP1 PUSH1 0x1F ADD PUSH1 0x20 DUP1 SWAP2 DIV MUL PUSH1 0x20 ADD PUSH1 0x40 MLOAD SWAP1 DUP2 ADD PUSH1 0x40 MSTORE DUP1 SWAP3 SWAP2 SWAP1 DUP2 DUP2 MSTORE PUSH1 0x20 ADD DUP3 DUP1 SLOAD PUSH2 0x48C SWAP1 PUSH2 0xECD JUMP JUMPDEST DUP1 ISZERO PUSH2 0x4D9 JUMPI DUP1 PUSH1 0x1F LT PUSH2 0x4AE JUMPI PUSH2 0x100 DUP1 DUP4 SLOAD DIV MUL DUP4 MSTORE SWAP2 PUSH1 0x20 ADD SWAP2 PUSH2 0x4D9 JUMP JUMPDEST DUP3 ADD SWAP2 SWAP1 PUSH1 0x0 MSTORE PUSH1 0x20 PUSH1 0x0 KECCAK256 SWAP1 JUMPDEST DUP2 SLOAD DUP2 MSTORE SWAP1 PUSH1 0x1 ADD SWAP1 PUSH1 0x20 ADD DUP1 DUP4 GT PUSH2 0x4BC JUMPI DUP3 SWAP1 SUB PUSH1 0x1F AND DUP3 ADD SWAP2 JUMPDEST POP POP POP POP POP DUP2 MSTORE POP POP SWAP1 POP SWAP1 JUMP JUMPDEST PUSH1 0x60 PUSH2 0x528 DUP4 DUP4 DUP1 DUP1 PUSH1 0x1F ADD PUSH1 0x20 DUP1 SWAP2 DIV MUL PUSH1 0x20 ADD PUSH1 0x40 MLOAD SWAP1 DUP2 ADD PUSH1 0x40 MSTORE DUP1 SWAP4 SWAP3 SWAP2 SWAP1 DUP2 DUP2 MSTORE PUSH1 0x20 ADD DUP4 DUP4 DUP1 DUP3 DUP5 CALLDATACOPY PUSH1 0x0 SWAP3 ADD SWAP2 SWAP1 SWAP2 MSTORE POP PUSH2 0xA1B SWAP3 POP POP POP JUMP JUMPDEST PUSH2 0x545 JUMPI PUSH1 0x40 MLOAD PUSH4 0x2EC110BF PUSH1 0xE1 SHL DUP2 MSTORE PUSH1 0x4 ADD PUSH1 0x40 MLOAD DUP1 SWAP2 SUB SWAP1 REVERT JUMPDEST PUSH1 0x0 DUP1 JUMPDEST PUSH1 0x0 SLOAD DUP2 LT ISZERO PUSH2 0x5BF JUMPI DUP5 DUP5 PUSH1 0x40 MLOAD PUSH2 0x563 SWAP3 SWAP2 SWAP1 PUSH2 0xF59 JUMP JUMPDEST PUSH1 0x40 MLOAD DUP1 SWAP2 SUB SWAP1 KECCAK256 PUSH1 0x0 DUP3 DUP2 SLOAD DUP2 LT PUSH2 0x57E JUMPI PUSH2 0x57E PUSH2 0xF43 JUMP JUMPDEST SWAP1 PUSH1 0x0 MSTORE PUSH1 0x20 PUSH1 0x0 KECCAK256 SWAP1 PUSH1 0x2 MUL ADD PUSH1 0x1 ADD PUSH1 0x40 MLOAD PUSH2 0x59C SWAP2 SWAP1 PUSH2 0xF69 JUMP JUMPDEST PUSH1 0x40 MLOAD DUP1 SWAP2 SUB SWAP1 KECCAK256 SUB PUSH2 0x5B7 JUMPI DUP2 PUSH2 0x5B3 DUP2 PUSH2 0xFDE JUMP JUMPDEST SWAP3 POP POP JUMPDEST PUSH1 0x1 ADD PUSH2 0x549 JUMP JUMPDEST POP PUSH1 0x0 DUP2 PUSH8 0xFFFFFFFFFFFFFFFF DUP2 GT ISZERO PUSH2 0x5DB JUMPI PUSH2 0x5DB PUSH2 0xDFE JUMP JUMPDEST PUSH1 0x40 MLOAD SWAP1 DUP1 DUP3 MSTORE DUP1 PUSH1 0x20 MUL PUSH1 0x20 ADD DUP3 ADD PUSH1 0x40 MSTORE DUP1 ISZERO PUSH2 0x621 JUMPI DUP2 PUSH1 0x20 ADD JUMPDEST PUSH1 0x40 DUP1 MLOAD DUP1 DUP3 ADD SWAP1 SWAP2 MSTORE PUSH1 0x0 DUP2 MSTORE PUSH1 0x60 PUSH1 0x20 DUP3 ADD MSTORE DUP2 MSTORE PUSH1 0x20 ADD SWAP1 PUSH1 0x1 SWAP1 SUB SWAP1 DUP2 PUSH2 0x5F9 JUMPI SWAP1 POP JUMPDEST POP SWAP1 POP PUSH1 0x0 DUP1 JUMPDEST PUSH1 0x0 SLOAD DUP2 LT ISZERO PUSH2 0x790 JUMPI DUP7 DUP7 PUSH1 0x40 MLOAD PUSH2 0x642 SWAP3 SWAP2 SWAP1 PUSH2 0xF59 JUMP JUMPDEST PUSH1 0x40 MLOAD DUP1 SWAP2 SUB SWAP1 KECCAK256 PUSH1 0x0 DUP3 DUP2 SLOAD DUP2 LT PUSH2 0x65D JUMPI PUSH2 0x65D PUSH2 0xF43 JUMP JUMPDEST SWAP1 PUSH1 0x0 MSTORE PUSH1 0x20 PUSH1 0x0 KECCAK256 SWAP1 PUSH1 0x2 MUL ADD PUSH1 0x1 ADD PUSH1 0x40 MLOAD PUSH2 0x67B SWAP2 SWAP1 PUSH2 0xF69 JUMP JUMPDEST PUSH1 0x40 MLOAD DUP1 SWAP2 SUB SWAP1 KECCAK256 SUB PUSH2 0x788 JUMPI PUSH1 0x0 DUP2 DUP2 SLOAD DUP2 LT PUSH2 0x69B JUMPI PUSH2 0x69B PUSH2 0xF43 JUMP JUMPDEST PUSH1 0x0 SWAP2 DUP3 MSTORE PUSH1 0x20 SWAP2 DUP3 SWAP1 KECCAK256 PUSH1 0x40 DUP1 MLOAD DUP1 DUP3 ADD SWAP1 SWAP2 MSTORE PUSH1 0x2 SWAP1 SWAP3 MUL ADD DUP1 SLOAD PUSH1 0x1 PUSH1 0x1 PUSH1 0xA0 SHL SUB AND DUP3 MSTORE PUSH1 0x1 DUP2 ADD DUP1 SLOAD SWAP3 SWAP4 SWAP2 SWAP3 SWAP2 DUP5 ADD SWAP2 PUSH2 0x6DA SWAP1 PUSH2 0xECD JUMP JUMPDEST DUP1 PUSH1 0x1F ADD PUSH1 0x20 DUP1 SWAP2 DIV MUL PUSH1 0x20 ADD PUSH1 0x40 MLOAD SWAP1 DUP2 ADD PUSH1 0x40 MSTORE DUP1 SWAP3 SWAP2 SWAP1 DUP2 DUP2 MSTORE PUSH1 0x20 ADD DUP3 DUP1 SLOAD PUSH2 0x706 SWAP1 PUSH2 0xECD JUMP JUMPDEST DUP1 ISZERO PUSH2 0x753 JUMPI DUP1 PUSH1 0x1F LT PUSH2 0x728 JUMPI PUSH2 0x100 DUP1 DUP4 SLOAD DIV MUL DUP4 MSTORE SWAP2 PUSH1 0x20 ADD SWAP2 PUSH2 0x753 JUMP JUMPDEST DUP3 ADD SWAP2 SWAP1 PUSH1 0x0 MSTORE PUSH1 0x20 PUSH1 0x0 KECCAK256 SWAP1 JUMPDEST DUP2 SLOAD DUP2 MSTORE SWAP1 PUSH1 0x1 ADD SWAP1 PUSH1 0x20 ADD DUP1 DUP4 GT PUSH2 0x736 JUMPI DUP3 SWAP1 SUB PUSH1 0x1F AND DUP3 ADD SWAP2 JUMPDEST POP POP POP POP POP DUP2 MSTORE POP POP DUP4 DUP4 DUP2 MLOAD DUP2 LT PUSH2 0x76E JUMPI PUSH2 0x76E PUSH2 0xF43 JUMP JUMPDEST PUSH1 0x20 MUL PUSH1 0x20 ADD ADD DUP2 SWAP1 MSTORE POP DUP2 DUP1 PUSH2 0x784 SWAP1 PUSH2 0xFDE JUMP JUMPDEST SWAP3 POP POP JUMPDEST PUSH1 0x1 ADD PUSH2 0x628 JUMP JUMPDEST POP SWAP1 SWAP6 SWAP5 POP POP POP POP POP JUMP JUMPDEST DUP2 DUP2 PUSH1 0x0 DUP2 SWAP1 SUB PUSH2 0x7BF JUMPI PUSH1 0x40 MLOAD PUSH4 0xAF943D03 PUSH1 0xE0 SHL DUP2 MSTORE PUSH1 0x4 ADD PUSH1 0x40 MLOAD DUP1 SWAP2 SUB SWAP1 REVERT JUMPDEST PUSH32 0x0 DUP2 GT ISZERO PUSH2 0x800 JUMPI PUSH1 0x40 MLOAD PUSH4 0xD88051B5 PUSH1 0xE0 SHL DUP2 MSTORE PUSH1 0x4 ADD PUSH1 0x40 MLOAD DUP1 SWAP2 SUB SWAP1 REVERT JUMPDEST PUSH1 0x1 SLOAD PUSH1 0xFF AND ISZERO PUSH2 0x84F JUMPI PUSH1 0x40 MLOAD CALLER SWAP1 PUSH32 0xD434F45DF1D7A0FF9C04A75749DAE78B723A05B56D00BBF36CBAA20CE5AAB3F9 SWAP1 PUSH1 0x0 SWAP1 LOG2 PUSH1 0x40 MLOAD PUSH4 0x6FDA65D PUSH1 0xE3 SHL DUP2 MSTORE PUSH1 0x4 ADD PUSH1 0x40 MLOAD DUP1 SWAP2 SUB SWAP1 REVERT JUMPDEST PUSH1 0x1 DUP1 SLOAD PUSH1 0xFF NOT AND DUP2 OR SWAP1 SSTORE PUSH1 0x40 DUP1 MLOAD PUSH1 0x20 PUSH1 0x1F DUP7 ADD DUP2 SWAP1 DIV DUP2 MUL DUP3 ADD DUP2 ADD SWAP1 SWAP3 MSTORE DUP5 DUP2 MSTORE PUSH1 0x0 SWAP2 PUSH2 0x89C SWAP2 SWAP1 DUP8 SWAP1 DUP8 SWAP1 DUP2 SWAP1 DUP5 ADD DUP4 DUP3 DUP1 DUP3 DUP5 CALLDATACOPY PUSH1 0x0 SWAP3 ADD SWAP2 SWAP1 SWAP2 MSTORE POP PUSH2 0xB12 SWAP3 POP POP POP JUMP JUMPDEST SWAP1 POP DUP1 MLOAD PUSH1 0x0 SUB PUSH2 0x8C0 JUMPI PUSH1 0x40 MLOAD PUSH4 0x3CF3005B PUSH1 0xE1 SHL DUP2 MSTORE PUSH1 0x4 ADD PUSH1 0x40 MLOAD DUP1 SWAP2 SUB SWAP1 REVERT JUMPDEST PUSH32 0x0 DUP2 MLOAD GT ISZERO PUSH2 0x902 JUMPI PUSH1 0x40 MLOAD PUSH4 0x606ED367 PUSH1 0xE1 SHL DUP2 MSTORE PUSH1 0x4 ADD PUSH1 0x40 MLOAD DUP1 SWAP2 SUB SWAP1 REVERT JUMPDEST PUSH2 0x90B DUP2 PUSH2 0xA1B JUMP JUMPDEST PUSH2 0x928 JUMPI PUSH1 0x40 MLOAD PUSH4 0x2EC110BF PUSH1 0xE1 SHL DUP2 MSTORE PUSH1 0x4 ADD PUSH1 0x40 MLOAD DUP1 SWAP2 SUB SWAP1 REVERT JUMPDEST PUSH1 0x40 DUP1 MLOAD DUP1 DUP3 ADD SWAP1 SWAP2 MSTORE CALLER DUP2 MSTORE PUSH1 0x20 DUP2 ADD DUP3 DUP2 MSTORE PUSH1 0x0 DUP1 SLOAD PUSH1 0x1 DUP2 ADD DUP3 SSTORE SWAP1 DUP1 MSTORE DUP3 MLOAD PUSH32 0x290DECD9548B62A8D60345A988386FC84BA6BC95484008F6362F93160EF3E563 PUSH1 0x2 SWAP1 SWAP3 MUL SWAP2 DUP3 ADD DUP1 SLOAD PUSH1 0x1 PUSH1 0x1 PUSH1 0xA0 SHL SUB NOT AND PUSH1 0x1 PUSH1 0x1 PUSH1 0xA0 SHL SUB SWAP1 SWAP3 AND SWAP2 SWAP1 SWAP2 OR DUP2 SSTORE SWAP2 MLOAD PUSH32 0x290DECD9548B62A8D60345A988386FC84BA6BC95484008F6362F93160EF3E564 SWAP1 SWAP2 ADD SWAP1 PUSH2 0x9C2 SWAP1 DUP3 PUSH2 0x1046 JUMP JUMPDEST POP POP POP CALLER PUSH1 0x1 PUSH1 0x1 PUSH1 0xA0 SHL SUB AND PUSH32 0xB29A5991CA7A9E8BB3821A478A704ABF11015074619F68CC043AC406992A3DF4 DUP7 DUP7 DUP5 PUSH1 0x40 MLOAD PUSH2 0xA02 SWAP4 SWAP3 SWAP2 SWAP1 PUSH2 0x1105 JUMP JUMPDEST PUSH1 0x40 MLOAD DUP1 SWAP2 SUB SWAP1 LOG2 POP POP PUSH1 0x1 DUP1 SLOAD PUSH1 0xFF NOT AND SWAP1 SSTORE POP POP POP JUMP JUMPDEST DUP1 MLOAD PUSH1 0x0 SWAP1 DUP3 SWAP1 DUP3 SUB PUSH2 0xA31 JUMPI POP PUSH1 0x0 SWAP3 SWAP2 POP POP JUMP JUMPDEST PUSH1 0x0 JUMPDEST DUP2 MLOAD DUP2 LT ISZERO PUSH2 0xB08 JUMPI PUSH1 0x0 DUP3 DUP3 DUP2 MLOAD DUP2 LT PUSH2 0xA51 JUMPI PUSH2 0xA51 PUSH2 0xF43 JUMP JUMPDEST ADD PUSH1 0x20 ADD MLOAD PUSH1 0x1 PUSH1 0x1 PUSH1 0xF8 SHL SUB NOT AND SWAP1 POP PUSH1 0x3 PUSH1 0xFC SHL DUP2 LT DUP1 ISZERO SWAP1 PUSH2 0xA84 JUMPI POP PUSH1 0x39 PUSH1 0xF8 SHL PUSH1 0x1 PUSH1 0x1 PUSH1 0xF8 SHL SUB NOT DUP3 AND GT ISZERO JUMPDEST ISZERO DUP1 ISZERO PUSH2 0xABA JUMPI POP PUSH1 0x41 PUSH1 0xF8 SHL PUSH1 0x1 PUSH1 0x1 PUSH1 0xF8 SHL SUB NOT DUP3 AND LT DUP1 ISZERO SWAP1 PUSH2 0xAB8 JUMPI POP PUSH1 0x2D PUSH1 0xF9 SHL PUSH1 0x1 PUSH1 0x1 PUSH1 0xF8 SHL SUB NOT DUP3 AND GT ISZERO JUMPDEST ISZERO JUMPDEST DUP1 ISZERO PUSH2 0xAEF JUMPI POP PUSH1 0x61 PUSH1 0xF8 SHL PUSH1 0x1 PUSH1 0x1 PUSH1 0xF8 SHL SUB NOT DUP3 AND LT DUP1 ISZERO SWAP1 PUSH2 0xAED JUMPI POP PUSH1 0x3D PUSH1 0xF9 SHL PUSH1 0x1 PUSH1 0x1 PUSH1 0xF8 SHL SUB NOT DUP3 AND GT ISZERO JUMPDEST ISZERO JUMPDEST ISZERO PUSH2 0xAFF JUMPI POP PUSH1 0x0 SWAP5 SWAP4 POP POP POP POP JUMP JUMPDEST POP PUSH1 0x1 ADD PUSH2 0xA34 JUMP JUMPDEST POP PUSH1 0x1 SWAP4 SWAP3 POP POP POP JUMP JUMPDEST DUP1 MLOAD PUSH1 0x60 SWAP1 DUP3 SWAP1 DUP1 JUMPDEST PUSH1 0x0 DUP2 GT DUP1 ISZERO PUSH2 0xB5A JUMPI POP DUP3 PUSH2 0xB32 PUSH1 0x1 DUP4 PUSH2 0xF30 JUMP JUMPDEST DUP2 MLOAD DUP2 LT PUSH2 0xB42 JUMPI PUSH2 0xB42 PUSH2 0xF43 JUMP JUMPDEST PUSH1 0x20 SWAP2 ADD ADD MLOAD PUSH1 0x1 PUSH1 0x1 PUSH1 0xF8 SHL SUB NOT AND PUSH1 0x1 PUSH1 0xFD SHL EQ ISZERO JUMPDEST ISZERO PUSH2 0xB71 JUMPI DUP1 PUSH2 0xB69 DUP2 PUSH2 0x114D JUMP JUMPDEST SWAP2 POP POP PUSH2 0xB1B JUMP JUMPDEST PUSH1 0x0 PUSH2 0xB7D DUP3 DUP5 PUSH2 0xF30 JUMP JUMPDEST PUSH8 0xFFFFFFFFFFFFFFFF DUP2 GT ISZERO PUSH2 0xB95 JUMPI PUSH2 0xB95 PUSH2 0xDFE JUMP JUMPDEST PUSH1 0x40 MLOAD SWAP1 DUP1 DUP3 MSTORE DUP1 PUSH1 0x1F ADD PUSH1 0x1F NOT AND PUSH1 0x20 ADD DUP3 ADD PUSH1 0x40 MSTORE DUP1 ISZERO PUSH2 0xBBF JUMPI PUSH1 0x20 DUP3 ADD DUP2 DUP1 CALLDATASIZE DUP4 CALLDATACOPY ADD SWAP1 POP JUMPDEST POP SWAP1 POP PUSH1 0x0 JUMPDEST PUSH2 0xBCF DUP4 DUP6 PUSH2 0xF30 JUMP JUMPDEST DUP2 LT ISZERO PUSH2 0xC2D JUMPI DUP5 PUSH2 0xBE1 DUP3 DUP6 PUSH2 0xF1D JUMP JUMPDEST DUP2 MLOAD DUP2 LT PUSH2 0xBF1 JUMPI PUSH2 0xBF1 PUSH2 0xF43 JUMP JUMPDEST PUSH1 0x20 ADD ADD MLOAD PUSH1 0xF8 SHR PUSH1 0xF8 SHL DUP3 DUP3 DUP2 MLOAD DUP2 LT PUSH2 0xC0E JUMPI PUSH2 0xC0E PUSH2 0xF43 JUMP JUMPDEST PUSH1 0x20 ADD ADD SWAP1 PUSH1 0x1 PUSH1 0x1 PUSH1 0xF8 SHL SUB NOT AND SWAP1 DUP2 PUSH1 0x0 BYTE SWAP1 MSTORE8 POP PUSH1 0x1 ADD PUSH2 0xBC5 JUMP JUMPDEST POP SWAP6 SWAP5 POP POP POP POP POP JUMP JUMPDEST PUSH1 0x0 PUSH1 0x20 DUP3 DUP5 SUB SLT ISZERO PUSH2 0xC49 JUMPI PUSH1 0x0 DUP1 REVERT JUMPDEST POP CALLDATALOAD SWAP2 SWAP1 POP JUMP JUMPDEST PUSH1 0x0 DUP2 MLOAD DUP1 DUP5 MSTORE PUSH1 0x0 JUMPDEST DUP2 DUP2 LT ISZERO PUSH2 0xC76 JUMPI PUSH1 0x20 DUP2 DUP6 ADD DUP2 ADD MLOAD DUP7 DUP4 ADD DUP3 ADD MSTORE ADD PUSH2 0xC5A JUMP JUMPDEST POP PUSH1 0x0 PUSH1 0x20 DUP3 DUP7 ADD ADD MSTORE PUSH1 0x20 PUSH1 0x1F NOT PUSH1 0x1F DUP4 ADD AND DUP6 ADD ADD SWAP2 POP POP SWAP3 SWAP2 POP POP JUMP JUMPDEST PUSH1 0x1 PUSH1 0x1 PUSH1 0xA0 SHL SUB DUP4 AND DUP2 MSTORE PUSH1 0x40 PUSH1 0x20 DUP3 ADD DUP2 SWAP1 MSTORE PUSH1 0x0 SWAP1 PUSH2 0xCBA SWAP1 DUP4 ADD DUP5 PUSH2 0xC50 JUMP JUMPDEST SWAP5 SWAP4 POP POP POP POP JUMP JUMPDEST PUSH1 0x0 DUP1 PUSH1 0x40 DUP4 DUP6 SUB SLT ISZERO PUSH2 0xCD5 JUMPI PUSH1 0x0 DUP1 REVERT JUMPDEST POP POP DUP1 CALLDATALOAD SWAP3 PUSH1 0x20 SWAP1 SWAP2 ADD CALLDATALOAD SWAP2 POP JUMP JUMPDEST PUSH1 0x1 DUP1 PUSH1 0xA0 SHL SUB DUP2 MLOAD AND DUP3 MSTORE PUSH1 0x0 PUSH1 0x20 DUP3 ADD MLOAD PUSH1 0x40 PUSH1 0x20 DUP6 ADD MSTORE PUSH2 0xCBA PUSH1 0x40 DUP6 ADD DUP3 PUSH2 0xC50 JUMP JUMPDEST PUSH1 0x0 PUSH1 0x20 DUP3 ADD PUSH1 0x20 DUP4 MSTORE DUP1 DUP5 MLOAD DUP1 DUP4 MSTORE PUSH1 0x40 DUP6 ADD SWAP2 POP PUSH1 0x40 DUP2 PUSH1 0x5 SHL DUP7 ADD ADD SWAP3 POP PUSH1 0x20 DUP7 ADD PUSH1 0x0 JUMPDEST DUP3 DUP2 LT ISZERO PUSH2 0xD64 JUMPI PUSH1 0x3F NOT DUP8 DUP7 SUB ADD DUP5 MSTORE PUSH2 0xD4F DUP6 DUP4 MLOAD PUSH2 0xCE4 JUMP JUMPDEST SWAP5 POP PUSH1 0x20 SWAP4 DUP5 ADD SWAP4 SWAP2 SWAP1 SWAP2 ADD SWAP1 PUSH1 0x1 ADD PUSH2 0xD33 JUMP JUMPDEST POP SWAP3 SWAP7 SWAP6 POP POP POP POP POP POP JUMP JUMPDEST PUSH1 0x20 DUP2 MSTORE PUSH1 0x0 PUSH2 0xD83 PUSH1 0x20 DUP4 ADD DUP5 PUSH2 0xCE4 JUMP JUMPDEST SWAP4 SWAP3 POP POP POP JUMP JUMPDEST PUSH1 0x0 DUP1 PUSH1 0x20 DUP4 DUP6 SUB SLT ISZERO PUSH2 0xD9D JUMPI PUSH1 0x0 DUP1 REVERT JUMPDEST DUP3 CALLDATALOAD PUSH8 0xFFFFFFFFFFFFFFFF DUP2 GT ISZERO PUSH2 0xDB4 JUMPI PUSH1 0x0 DUP1 REVERT JUMPDEST DUP4 ADD PUSH1 0x1F DUP2 ADD DUP6 SGT PUSH2 0xDC5 JUMPI PUSH1 0x0 DUP1 REVERT JUMPDEST DUP1 CALLDATALOAD PUSH8 0xFFFFFFFFFFFFFFFF DUP2 GT ISZERO PUSH2 0xDDC JUMPI PUSH1 0x0 DUP1 REVERT JUMPDEST DUP6 PUSH1 0x20 DUP3 DUP5 ADD ADD GT ISZERO PUSH2 0xDEE JUMPI PUSH1 0x0 DUP1 REVERT JUMPDEST PUSH1 0x20 SWAP2 SWAP1 SWAP2 ADD SWAP6 SWAP1 SWAP5 POP SWAP3 POP POP POP JUMP JUMPDEST PUSH4 0x4E487B71 PUSH1 0xE0 SHL PUSH1 0x0 MSTORE PUSH1 0x41 PUSH1 0x4 MSTORE PUSH1 0x24 PUSH1 0x0 REVERT JUMPDEST PUSH1 0x0 PUSH1 0x20 DUP3 DUP5 SUB SLT ISZERO PUSH2 0xE26 JUMPI PUSH1 0x0 DUP1 REVERT JUMPDEST DUP2 CALLDATALOAD PUSH8 0xFFFFFFFFFFFFFFFF DUP2 GT ISZERO PUSH2 0xE3D JUMPI PUSH1 0x0 DUP1 REVERT JUMPDEST DUP3 ADD PUSH1 0x1F DUP2 ADD DUP5 SGT PUSH2 0xE4E JUMPI PUSH1 0x0 DUP1 REVERT JUMPDEST DUP1 CALLDATALOAD PUSH8 0xFFFFFFFFFFFFFFFF DUP2 GT ISZERO PUSH2 0xE68 JUMPI PUSH2 0xE68 PUSH2 0xDFE JUMP JUMPDEST PUSH1 0x40 MLOAD PUSH1 0x1F DUP3 ADD PUSH1 0x1F NOT SWAP1 DUP2 AND PUSH1 0x3F ADD AND DUP2 ADD PUSH8 0xFFFFFFFFFFFFFFFF DUP2 GT DUP3 DUP3 LT OR ISZERO PUSH2 0xE97 JUMPI PUSH2 0xE97 PUSH2 0xDFE JUMP JUMPDEST PUSH1 0x40 MSTORE DUP2 DUP2 MSTORE DUP3 DUP3 ADD PUSH1 0x20 ADD DUP7 LT ISZERO PUSH2 0xEAF JUMPI PUSH1 0x0 DUP1 REVERT JUMPDEST DUP2 PUSH1 0x20 DUP5 ADD PUSH1 0x20 DUP4 ADD CALLDATACOPY PUSH1 0x0 SWAP2 DUP2 ADD PUSH1 0x20 ADD SWAP2 SWAP1 SWAP2 MSTORE SWAP5 SWAP4 POP POP POP POP JUMP JUMPDEST PUSH1 0x1 DUP2 DUP2 SHR SWAP1 DUP3 AND DUP1 PUSH2 0xEE1 JUMPI PUSH1 0x7F DUP3 AND SWAP2 POP JUMPDEST PUSH1 0x20 DUP3 LT DUP2 SUB PUSH2 0xF01 JUMPI PUSH4 0x4E487B71 PUSH1 0xE0 SHL PUSH1 0x0 MSTORE PUSH1 0x22 PUSH1 0x4 MSTORE PUSH1 0x24 PUSH1 0x0 REVERT JUMPDEST POP SWAP2 SWAP1 POP JUMP JUMPDEST PUSH4 0x4E487B71 PUSH1 0xE0 SHL PUSH1 0x0 MSTORE PUSH1 0x11 PUSH1 0x4 MSTORE PUSH1 0x24 PUSH1 0x0 REVERT JUMPDEST DUP1 DUP3 ADD DUP1 DUP3 GT ISZERO PUSH2 0x3C3 JUMPI PUSH2 0x3C3 PUSH2 0xF07 JUMP JUMPDEST DUP2 DUP2 SUB DUP2 DUP2 GT ISZERO PUSH2 0x3C3 JUMPI PUSH2 0x3C3 PUSH2 0xF07 JUMP JUMPDEST PUSH4 0x4E487B71 PUSH1 0xE0 SHL PUSH1 0x0 MSTORE PUSH1 0x32 PUSH1 0x4 MSTORE PUSH1 0x24 PUSH1 0x0 REVERT JUMPDEST DUP2 DUP4 DUP3 CALLDATACOPY PUSH1 0x0 SWAP2 ADD SWAP1 DUP2 MSTORE SWAP2 SWAP1 POP JUMP JUMPDEST PUSH1 0x0 DUP1 DUP4 SLOAD PUSH2 0xF77 DUP2 PUSH2 0xECD JUMP JUMPDEST PUSH1 0x1 DUP3 AND DUP1 ISZERO PUSH2 0xF8E JUMPI PUSH1 0x1 DUP2 EQ PUSH2 0xFA3 JUMPI PUSH2 0xFD3 JUMP JUMPDEST PUSH1 0xFF NOT DUP4 AND DUP7 MSTORE DUP2 ISZERO ISZERO DUP3 MUL DUP7 ADD SWAP4 POP PUSH2 0xFD3 JUMP JUMPDEST DUP7 PUSH1 0x0 MSTORE PUSH1 0x20 PUSH1 0x0 KECCAK256 PUSH1 0x0 JUMPDEST DUP4 DUP2 LT ISZERO PUSH2 0xFCB JUMPI DUP2 SLOAD DUP9 DUP3 ADD MSTORE PUSH1 0x1 SWAP1 SWAP2 ADD SWAP1 PUSH1 0x20 ADD PUSH2 0xFAF JUMP JUMPDEST POP POP DUP2 DUP7 ADD SWAP4 POP JUMPDEST POP SWAP2 SWAP6 SWAP5 POP POP POP POP POP JUMP JUMPDEST PUSH1 0x0 PUSH1 0x1 DUP3 ADD PUSH2 0xFF0 JUMPI PUSH2 0xFF0 PUSH2 0xF07 JUMP JUMPDEST POP PUSH1 0x1 ADD SWAP1 JUMP JUMPDEST PUSH1 0x1F DUP3 GT ISZERO PUSH2 0x1041 JUMPI DUP1 PUSH1 0x0 MSTORE PUSH1 0x20 PUSH1 0x0 KECCAK256 PUSH1 0x1F DUP5 ADD PUSH1 0x5 SHR DUP2 ADD PUSH1 0x20 DUP6 LT ISZERO PUSH2 0x101E JUMPI POP DUP1 JUMPDEST PUSH1 0x1F DUP5 ADD PUSH1 0x5 SHR DUP3 ADD SWAP2 POP JUMPDEST DUP2 DUP2 LT ISZERO PUSH2 0x103E JUMPI PUSH1 0x0 DUP2 SSTORE PUSH1 0x1 ADD PUSH2 0x102A JUMP JUMPDEST POP POP JUMPDEST POP POP POP JUMP JUMPDEST DUP2 MLOAD PUSH8 0xFFFFFFFFFFFFFFFF DUP2 GT ISZERO PUSH2 0x1060 JUMPI PUSH2 0x1060 PUSH2 0xDFE JUMP JUMPDEST PUSH2 0x1074 DUP2 PUSH2 0x106E DUP5 SLOAD PUSH2 0xECD JUMP JUMPDEST DUP5 PUSH2 0xFF7 JUMP JUMPDEST PUSH1 0x20 PUSH1 0x1F DUP3 GT PUSH1 0x1 DUP2 EQ PUSH2 0x10A8 JUMPI PUSH1 0x0 DUP4 ISZERO PUSH2 0x1090 JUMPI POP DUP5 DUP3 ADD MLOAD JUMPDEST PUSH1 0x0 NOT PUSH1 0x3 DUP6 SWAP1 SHL SHR NOT AND PUSH1 0x1 DUP5 SWAP1 SHL OR DUP5 SSTORE PUSH2 0x103E JUMP JUMPDEST PUSH1 0x0 DUP5 DUP2 MSTORE PUSH1 0x20 DUP2 KECCAK256 PUSH1 0x1F NOT DUP6 AND SWAP2 JUMPDEST DUP3 DUP2 LT ISZERO PUSH2 0x10D8 JUMPI DUP8 DUP6 ADD MLOAD DUP3 SSTORE PUSH1 0x20 SWAP5 DUP6 ADD SWAP5 PUSH1 0x1 SWAP1 SWAP3 ADD SWAP2 ADD PUSH2 0x10B8 JUMP JUMPDEST POP DUP5 DUP3 LT ISZERO PUSH2 0x10F6 JUMPI DUP7 DUP5 ADD MLOAD PUSH1 0x0 NOT PUSH1 0x3 DUP8 SWAP1 SHL PUSH1 0xF8 AND SHR NOT AND DUP2 SSTORE JUMPDEST POP POP POP POP PUSH1 0x1 SWAP1 DUP2 SHL ADD SWAP1 SSTORE POP JUMP JUMPDEST PUSH1 0x40 DUP2 MSTORE DUP3 PUSH1 0x40 DUP3 ADD MSTORE DUP3 DUP5 PUSH1 0x60 DUP4 ADD CALLDATACOPY PUSH1 0x0 PUSH1 0x60 DUP5 DUP4 ADD ADD MSTORE PUSH1 0x0 PUSH1 0x1F NOT PUSH1 0x1F DUP6 ADD AND DUP3 ADD PUSH1 0x60 DUP4 DUP3 SUB ADD PUSH1 0x20 DUP5 ADD MSTORE PUSH2 0x1143 PUSH1 0x60 DUP3 ADD DUP6 PUSH2 0xC50 JUMP JUMPDEST SWAP7 SWAP6 POP POP POP POP POP POP JUMP JUMPDEST PUSH1 0x0 DUP2 PUSH2 0x115C JUMPI PUSH2 0x115C PUSH2 0xF07 JUMP JUMPDEST POP PUSH1 0x0 NOT ADD SWAP1 JUMP INVALID LOG2 PUSH5 0x6970667358 0x22 SLT KECCAK256 SWAP7 DUP3 COINBASE PUSH30 0x384B973204033A123261FF922E7B5AF2E2F3C3C44760750B7CEBCF816473 PUSH16 0x6C634300081C00330000000000000000 "
        },
        "methodIdentifiers": {
          "addMessage(string)": "6a226a49",
          "getLastMessage()": "526bf76e",
          "getMessages(uint256,uint256)": "4be8362d",
          "getMessagesCount()": "3d0c46d0",
          "isValidKeyword(string)": "931588c0",
          "messages(uint256)": "0d80fefd",
          "searchMessagesByKeyword(string)": "5b1dd374"
        }
      }
    }
  }
}